:10000000A3C4BDC4BCC4BBC4BAC4B9C41EC5B7C4B0
:10001000B6C4B5C4B4C4C7C4B2C4B1C4B0C4AFC418
:10002000AEC4ADC4ACC400FF80CAFAFFD2BE522039
:100030000C0400010308163A4553789BB5D2E7F546
:10004000FAFFF1DDC8B79B8A2B1A86DB27E49B52A7
:10005000FA0C6B3A37562027B656DC691F465821F2
:1000600032387041F2C7116F75B5F7FB6EC60D7E61
:10007000D0A90ACD9CA693D2AC49B0B86A408ADF19
:1000800067CA986055E51FF2FD0301E90D37D9D61F
:100090007C2C6ECE862EADC2E8595F3646D39A6769
:1000A000C300868BE58BDFB38E8F765D36DE84579B
:1000B0004ABDE02ACCE1E3BED29159C6D36810D242
:1000C000B22E0C3A266164F430B1AA59EF6E5A1A76
:1000D000090F1013708C423EDBB1BF84E26C1C2D03
:1000E00085DCBE13E56115ED3622C8012C8F111B8E
:1000F000AF31C9EB24A460C281FC8507437CFE18A4
:10010000537481F84B6AC8D0FDC1FE784E91CC374C
:10011000E4BCF13BBDDDA1EBF291240B801E27096D
:10012000BCF5D9C5BBF19F2CBAB72053942D144709
:10013000AD93C5EF82FAD105DDDC59F63881593827
:100140001FD374CEA0F3004598CEF7D01C26234AC7
:100150004174A80F3FB921B85620EE213515D93783
:10016000D603281B182FCBB24FABBD148CF84FE62B
:10017000057C96A2C1D0FE882CDFAD2E943EC366CE
:1001800026391D155D73F178CD5EFE9221AF31B336
:1001900015B110E53ED44A314AF1F8F054DD9E35F0
:1001A0008A8574E3857BA81A24B5295877A2C6B737
:1001B00064E6922661DBE743E36120D088F464F4CF
:1001C00054E5DC04EF62E0830945F8FEAA6CCA90AE
:1001D000543988FE4373BCBDA7F9CC94B00E600CB3
:1001E00060E86AB6C0BFD7F6E10D60C51459E6985D
:1001F000ABC0F979CAF99BCEBD32E969495A74B8E6
:1002000048A189C672A37BDF2F1A425A194578F399
:1002100012A2BBAA839D5901BF8B20A791B5F924D7
:10022000696FB1049EF8A5EC4F093C1B304232BC0B
:100230005B2B89412FF52DDAC27E91054A116A6A3E
:10024000473681AFE8DD772AD757BE42BCAE9E273E
:10025000132673F410A6D1FB815EBB87C791D0EA49
:1002600008A1EB010923BF0B32F0224202AF217833
:10027000273F37D09BE3F61FE1193E6BFA92BCFB98
:10028000E2962571FD816042F9BC261F0327168284
:100290006B4C11AEAF342FABA5FE566FEF099356E2
:1002A000860642E4680415FEFB5A8DB7952A351779
:1002B000D90446C7543C6A63C5C33E268B1C656897
:1002C000153A303C7A25BA7E234198876C4C97D7F3
:1002D00013C68FFDD9B6A182D1AA2A1D2F1437C803
:1002E000256F37F36AEE56AC6B8073F020A438E8C4
:1002F000785CF01CC301F23E9565B01C350627E41E
:10030000F0FB365B4F74A074AD22F949BB4CCFAB08
:10031000CE5C55EEC689CDB12B914A7977461A1637
:1003200091BF35C45B2FF3784BED7AB3B09549D9C3
:100330005515A412473291741FE58BC273C344BB99
:10034000E2B9C6B63E4CEAF413E0AA897F387F775B
:100350002D07CC93584B39AABDB855713612097E7A
:100360000E2EEBB1A998221965986A7BA46A2B6FAF
:10037000144E20E71D4361DE86A12C3EC5141835BE
:100380006A74C94632910A556EFE1AEC207B1DAA8A
:1003900030179DEB95C68A220BADB8F0E2A1D8BD0F
:1003A00047C4DAFE93BB783AE4224C2A60F1D91BA9
:1003B0008E7E1AC87245ACA26828ADB5658F2C45F3
:1003C0006E0C922F192098CFAA853B6B123834D629
:1003D00044252352B552168566D53918B61A3D0DF7
:1003E000206B95AF8811EEE6ABD59544887493D712
:1003F000A8953FBECFAF595E573FBEB13A7731B0F7
:100400008114014494F3FF3EA03A391290F4C0F0F5
:100410002BE6E7E3426FA7BA31CAA2A16B5956CBCC
:100420000BA87D939008B81592EE72268D631D0F70
:10043000A29AFB043F2119E4719AA2BBFB1902BDE9
:100440000D5936CDE6F7F01880808182838384854C
:1004500086878788898A8A8B8C8D8E8E8F909191E2
:10046000929394959596979898999A9B9B9C9D9E0C
:100470009E9FA0A1A2A2A3A4A5A5A6A7A7A8A9AA3A
:10048000AAABACADADAEAFB0B0B1B2B2B3B4B5B56E
:10049000B6B7B7B8B9BABABBBCBCBDBEBEBFC0C0A8
:1004A000C1C2C2C3C4C4C5C6C6C7C8C8C9CACACBEC
:1004B000CBCCCDCDCECFCFD0D0D1D2D2D3D3D4D53B
:1004C000D5D6D6D7D7D8D9D9DADADBDBDCDCDDDD97
:1004D000DEDEDFE0E0E1E1E2E2E3E3E4E4E4E5E5FF
:1004E000E6E6E7E7E8E8E9E9EAEAEAEBEBECECEC78
:1004F000EDEDEEEEEEEFEFF0F0F0F1F1F1F2F2F201
:10050000F3F3F3F4F4F4F5F5F5F6F6F6F6F7F7F79A
:10051000F8F8F8F8F9F9F9F9FAFAFAFAFAFBFBFB44
:10052000FBFBFCFCFCFCFCFCFDFDFDFDFDFDFDFE04
:10053000FEFEFEFEFEFEFEFEFEFEFFFFFFFFFFFFD5
:10054000FFFFFFFFFFFFFFFFFFFFFFFFFFFFFFFFBB
:10055000FFFFFFFFFFFFFFFEFEFEFEFEFEFEFEFEB4
:10056000FEFEFDFDFDFDFDFDFDFCFCFCFCFCFCFBC1
:10057000FBFBFBFBFAFAFAFAFAF9F9F9F9F8F8F8E1
:10058000F8F7F7F7F6F6F6F6F5F5F5F4F4F4F3F315
:10059000F3F2F2F2F1F1F1F0F0F0EFEFEEEEEEED5A
:1005A000EDECECECEBEBEAEAEAE9E9E8E8E7E7E6B0
:1005B000E6E5E5E4E4E4E3E3E2E2E1E1E0E0DFDE16
:1005C000DEDDDDDCDCDBDBDADAD9D9D8D7D7D6D68D
:1005D000D5D5D4D3D3D2D2D1D0D0CFCFCECDCDCC10
:1005E000CBCBCACAC9C8C8C7C6C6C5C4C4C3C2C2A1
:1005F000C1C0C0BFBEBEBDBCBCBBBABAB9B8B7B73C
:10060000B6B5B5B4B3B2B2B1B0B0AFAEADADACABE0
:10061000AAAAA9A8A7A7A6A5A5A4A3A2A2A1A09F8C
:100620009E9E9D9C9B9B9A9998989796959594933E
:10063000929191908F8E8E8D8C8B8A8A89888787F4
:100640008685848383828180807F7E7D7C7C7B7AAB
:10065000797878777675757473727171706F6E6E64
:100660006D6C6B6A6A69686767666564646362611A
:1006700061605F5E5D5D5C5B5A5A595858575655CC
:10068000555453525251504F4F4E4D4D4C4B4A4A78
:1006900049484847464545444343424141403F3F1E
:1006A0003E3D3D3C3B3B3A393938373736353534BA
:1006B000343332323130302F2F2E2D2D2C2C2B2A4B
:1006C0002A292928282726262525242423232222CF
:1006D0002121201F1F1E1E1D1D1C1C1B1B1B1A1A47
:1006E00019191818171716161515151414131313AE
:1006F000121211111110100F0F0F0E0E0E0D0D0D05
:100700000C0C0C0B0B0B0A0A0A090909090808084A
:100710000707070706060606050505050504040480
:1007200004040303030303030202020202020201A0
:1007300001010101010101010101000000000000AF
:1007400000000000000000000000000000000000A9
:100750000000000000000001010101010101010190
:100760000101020202020202020303030303030463
:100770000404040405050505050606060607070723
:1007800007080808090909090A0A0A0B0B0B0C0CCF
:100790000C0D0D0D0E0E0E0F0F0F1010111111126A
:1007A00012131313141415151516161717181819F4
:1007B000191A1A1B1B1B1C1C1D1D1E1E1F1F20216E
:1007C00021222223232424252526262728282929D7
:1007D0002A2A2B2C2C2D2D2E2F2F30303132323334
:1007E000343435353637373839393A3B3B3C3D3D83
:1007F0003E3F3F40414142434344454546474848C8
:10080000494A4A4B4C4D4D4E4F4F50515252535402
:10081000555556575858595A5A5B5C5D5D5E5F6036
:100820006161626364646566676768696A6A6B6C64
:100830006D6E6E6F7071717273747575767778788E
:10084000797A7B7C7C7D7E7F0001020304050607AC
:1008500008090A0B0C0D0E0F1011121314151617A0
:1008600018191A1B1C1D1E1F202122232425262790
:1008700028292A2B2C2D2E2F303132333435363780
:1008800038393A3B3C3D3E3F404142434445464770
:1008900048494A4B4C4D4E4F505152535455565760
:1008A00058595A5B5C5D5E5F606162636465666750
:1008B00068696A6B6C6D6E6F707172737475767740
:1008C00078797A7B7C7D7E7F808182838485868730
:1008D00088898A8B8C8D8E8F909192939495969720
:1008E00098999A9B9C9D9E9FA0A1A2A3A4A5A6A710
:1008F000A8A9AAABACADAEAFB0B1B2B3B4B5B6B700
:10090000B8B9BABBBCBDBEBFC0C1C2C3C4C5C6C7EF
:10091000C8C9CACBCCCDCECFD0D1D2D3D4D5D6D7DF
:10092000D8D9DADBDCDDDEDFE0E1E2E3E4E5E6E7CF
:10093000E8E9EAEBECEDEEEFF0F1F2F3F4F5F6F7BF
:10094000F8F9FAFBFCFDFEFF11241FBECFE5D4E051
:10095000DEBFCDBF10E0A0E6B0E0E4E6FFE002C0FD
:1009600005900D92A236B107D9F720E0A2E6B0E0DB
:1009700001C01D92A339B207E1F76BD1F1C240CBA0
:100980008EEF81BB8FE087BB14BA08958AE691E0B1
:100990009BBD8ABD1FBC89E08EBD80E189BF0895E3
:1009A00085E886B908951F920F920FB60F92112411
:1009B0008F939F9380916000909161000196909336
:1009C0006100809360009F918F910F900FBE0F90F8
:1009D0001F90189510BC8FE189B980E98AB986E823
:1009E00080BD089580FF02C0929A01C0929881FF55
:1009F00002C0939A01C0939882FF02C0949A01C0EA
:100A0000949883FF02C0959A01C0959884FF02C014
:100A1000969A01C0969885FF02C0979A01C0979850
:100A200086FF02C0C09A01C0C09887FF02C0C19A69
:100A300001C0C19890FF02C0C29A01C0C29891FF44
:100A400002C0C39A0895C39808951F920F920FB6DB
:100A50000F921124CF92DF92EF92FF922F933F9348
:100A60004F935F936F937F938F939F93AF93BF93B6
:100A7000EF93FF9380918D0090918E00B3DF809172
:100A80009100909192000196909392008093910032
:100A900036993FC087B1823011F160F48823B9F0F4
:100AA0008130B1F584B195B190938A00809389002B
:100AB00082E01CC0843021F1D8F0853049F584B142
:100AC00095B1909382008093810017B821C084B1C2
:100AD00095B190938C0080938B0081E007C084B126
:100AE00095B1909388008093870083E087B910C008
:100AF00084B195B1909386008093850084E0F6CF11
:100B000084B195B1909384008093830085E0EECF0B
:100B1000369A2091910030919200809160009091DE
:100B2000610082179307ACF480918D0090918E0044
:100B3000892B29F4809185009091860002C080E085
:100B400090E090938E0080938D001092920010920E
:100B5000910060918B0070918C00882777FD8095C3
:100B6000982FE7D020E030E040E85AE372D120E04F
:100B700030E048EC52E46DD160937D0070937E00CC
:100B800080937F00909380006091790070917A004B
:100B900080917B0090917C0020917D0030917E00BF
:100BA00040917F00509180005ED020E030EC4FE714
:100BB00054E44BD11816C4F42091790030917A0096
:100BC00040917B0050917C00C0907D00D0907E00D1
:100BD000E0907F00F090800060E070EC8FE794E49C
:100BE00041D0A701960110C06091790070917A0000
:100BF00080917B0090917C0020917D0030917E005F
:100C000040917F00509180002ED0609379007093C6
:100C10007A0080937B0090937C00FF91EF91BF91CD
:100C2000AF919F918F917F916F915F914F913F9184
:100C30002F91FF90EF90DF90CF900F900FBE0F900D
:100C40001F901895840F911D885B9B4FFC01849128
:100C5000089596DEBFDE9ADE85E886B9789485E051
:100C600087B9FFCF5058BB27AA270ED0B4C0A5D054
:100C700030F0AAD020F031F49F3F11F41EF49AC056
:100C80000EF4E095E7FB90C0E92FB6D080F3BA17D9
:100C9000620773078407950718F071F49EF5CEC0BC
:100CA0000EF4E0950B2EBA2FA02D0B01B901900187
:100CB0000C01CA01A0011124FF27591B99F0593FCB
:100CC00050F4503E68F11A16F040A22F232F342F13
:100CD0004427585FF3CF469537952795A795F04061
:100CE0005395C9F77EF41F16BA0B620B730B840B76
:100CF000BAF09150A1F0FF0FBB1F661F771F881F2E
:100D0000C2F70EC0BA0F621F731F841F48F4879585
:100D100077956795B795F7959E3F08F0B3CF939574
:100D2000880F08F09927EE0F979587950895E89416
:100D300009C097FB3EF490958095709561957F4F23
:100D40008F4F9F4F9923A9F0F92F96E9BB279395D1
:100D5000F695879577956795B795F111F8CFFAF4E1
:100D6000BB0F11F460FF1BC06F5F7F4F8F4F9F4F12
:100D700016C0882311F096E911C0772321F09EE870
:100D8000872F762F05C0662371F096E8862F70E0D6
:100D900060E02AF09A95660F771F881FDAF7880FB0
:100DA0009695879597F9089597F99F6780E870E081
:100DB00060E008959FEF80EC089500240A941616D1
:100DC000170618060906089500240A941216130639
:100DD000140605060895092E0394000C11F48823C7
:100DE00052F0BB0F40F4BF2B11F460FF04C06F5FE3
:100DF0007F4F8F4F9F4F089557FD9058440F551FB9
:100E000059F05F3F71F04795880F97FB991F61F08C
:100E10009F3F79F087950895121613061406551F03
:100E2000F2CF4695F1DF08C0161617061806991F6F
:100E3000F1CF86957105610508940895E894BB2764
:100E400066277727CB0197F9089566D008F48FEFCE
:100E500008950BD0C0CFB1DF28F0B6DF18F095238E
:100E600009F0A2CFA7CF1124EACFC6DFA0F3959F48
:100E7000D1F3950F50E0551F629FF001729FBB2781
:100E8000F00DB11D639FAA27F00DB11DAA1F649F2D
:100E90006627B00DA11D661F829F2227B00DA11DE0
:100EA000621F739FB00DA11D621F839FA00D611D66
:100EB000221F749F3327A00D611D231F849F600D87
:100EC000211D822F762F6A2F11249F5750408AF0C0
:100ED000E1F088234AF0EE0FFF1FBB1F661F771F4C
:100EE000881F91505040A9F79E3F510570F05CCF8C
:100EF000A6CF5F3FECF3983EDCF386957795679538
:100F0000B795F795E7959F5FC1F7FE2B880F911D69
:100F10009695879597F90895990F0008550FAA0B94
:100F2000E0E8FEEF16161706E807F907C0F01216FC
:100F30001306E407F50798F0621B730B840B950BFF
:100F400039F40A2661F0232B242B252B21F4089554
:100F50000A2609F4A140A6958FEF811D811D0895F1
:040F6000F894FFCF33
:020F64002C015E
:00000001FF
