:100000001DC037C046C035C034C033C032C031C057
:1000100030C02FC02EC02DC02CC02BC02AC029C07C
:1000200028C027C026C025C024C023C022C021C0AC
:1000300020C01FC01EC01DC01CC01BC011241FBE7D
:10004000CFEFD1E0DEBFCDBF11E0A0E0B1E0E8EE40
:10005000FBE002C005900D92A630B107D9F721E070
:10006000A6E0B1E001C01D92A730B207E1F7B7D218
:10007000B9C5C6CF17BA8FE088BB8EE78ABB81E8C7
:100080008BBB089581E082BB8BB780618BBF789476
:1000900008951F920F920FB60F9211240F900FBE6A
:1000A0000F901F90189583E08093680085EC8093F3
:1000B00067008FE38093660083EF80BF81E083BF9A
:1000C0008FB5836F8FBD8EB589608EBDEAECF0E091
:1000D0008081836F8083E9ECF0E080818960808398
:1000E0008FEF9FEF95BD84BD9093C1008093C000BA
:1000F0001BBC1ABC19BC18BC1CBE1092C3001092C9
:10010000C2001092C5001092C40016BE08954F920E
:100110005F926F927F928F929F92AF92BF92CF9297
:10012000DF92EF92FF920F931F93CF93DF934B01D8
:100130005C013901D42FC52F6701780120E030E040
:10014000A901C701B601A6D387FF09C020E030E0AE
:1001500040E85FE3C701B60139D36B017C0120E0C1
:1001600030E040E85FE3C701B60176D418164CF4DE
:1001700020E030E040E85FE3C701B60126D36B0121
:100180007C012BEA3AEA4AE25EE3C701B60182D378
:1001900087FF0EC09401A501B3018D2F9C2F15D3AD
:1001A00020E030E040EC50E45BD4A70196012AC087
:1001B00020E030E040E05FE3C701B6016BD387FD8C
:1001C0002EC02BEA3AEA4AE25FE3C701B60162D3E6
:1001D00087FF22C09401A501B3018D2F9C2FF5D27A
:1001E0002B013C01A70196016BEA7AEA8AE29FE3C0
:1001F000ECD29B01AC01C301B20132D420E030E06B
:1002000040EC50E42DD49B01AC01B401C501DED219
:100210003B01D82FC92F03C03401DA2DCB2DB301F8
:100220008D2F9C2FDF91CF911F910F91FF90EF9019
:10023000DF90CF90BF90AF909F908F907F906F9006
:100240005F904F9008954F925F926F927F928F923E
:100250009F92AF92BF92CF92DF92EF92FF920F9355
:100260001F93CF93DF9300D000D0CDB7DEB760915E
:10027000050170E080E090E03FD320E030E040E80E
:100280005BE3EED34B015C016091030170E080E021
:1002900090E032D320E030E040E85BE3E1D36B0153
:1002A0007C016091010170E080E090E025D320E0C6
:1002B00030E040E85BE3D4D32B013C0120E030E0A8
:1002C00040E05FE3C701B601E5D287FF0DC020E043
:1002D00030E040E85FE3C301B20178D29B01AC019A
:1002E000C701B601BDD315C0A3019201C701B60174
:1002F0006DD269837A838B839C83A3019201C701AA
:10030000B601AED39B01AC0169817A818B819C815E
:100310005CD22B013C01A7019601C701B60156D260
:10032000A301920152D269837A838B839C832BEA47
:100330003AEA4AEA5EE3C501B40148D27B018C0186
:10034000A301920169817A818B819C81E0DE9B010E
:10035000AC0160E070E080E89FE337D2F0D320E0AA
:1003600030E040E854E47CD320E030E040E85FE354
:100370002CD294D27BBD6ABD85017401A301920188
:1003800069817A818B819C81C2DE9B01AC0160E036
:1003900070E080E89FE319D2D2D320E030E040E85B
:1003A00054E45ED320E030E040E85FE30ED276D242
:1003B00079BD68BD2BEA3AEA4AEA5EE3C501B401B9
:1003C00004D27B018C01A301920169817A818B8126
:1003D0009C819DDE9B01AC0160E070E080E89FE3C2
:1003E000F4D1ADD320E030E040E853E439D320E04D
:1003F00030E040E85FE3E9D151D26CBF6091040185
:1004000070E080E090E078D220E030E040E85BE30C
:1004100027D34B015C016091020170E080E090E025
:100420006BD220E030E040E85BE31AD36B017C0143
:100430006091000170E080E090E05ED220E030E06A
:1004400040E85BE30DD32B013C0120E030E040E0CD
:100450005FE3C701B6011ED287FF0DC020E030E088
:1004600040E85FE3C301B201B1D19B01AC01C70118
:10047000B601F6D215C0A3019201C701B601A6D1FB
:1004800069837A838B839C83A3019201C701B601A0
:10049000E7D29B01AC0169817A818B819C8195D1E6
:1004A0002B013C01A7019601C701B6018FD1A30121
:1004B00092018BD169837A838B839C832BEA3AEAFE
:1004C0004AEA5EE3C501B40181D17B018C01A3013D
:1004D000920169817A818B819C8119DE9B01AC013B
:1004E00060E070E080E89FE370D129D320E030E045
:1004F00040E854E4B5D220E030E040E85FE365D165
:10050000CDD17093C3006093C20085017401A30133
:10051000920169817A818B819C81F9DD9B01AC011B
:1005200060E070E080E89FE350D109D320E030E044
:1005300040E854E495D220E030E040E85FE345D164
:10054000ADD17093C5006093C4002BEA3AEA4AEA41
:100550005EE3C501B40139D17B018C01A301920195
:1005600069817A818B819C81D2DD9B01AC0160E045
:1005700070E080E89FE329D1E2D220E030E040E85B
:1005800053E46ED220E030E040E85FE31ED186D134
:1005900066BF0F900F900F900F90DF91CF911F913A
:1005A0000F91FF90EF90DF90CF90BF90AF909F9012
:1005B0008F907F906F905F904F900895E0E7F0E00C
:1005C00080818E7F8083808385B1846085B985B981
:1005D0002F9A89B189B9239A85B185B908954ADDE1
:1005E00062DDECDF9F989E989D989B989A989998C9
:1005F000A49AA39AA29A2E9AC0E0D1E000E010E05B
:10060000FF24F3942E9927C087B1843618F4A79855
:10061000A69820C087B1883870F4A7991BC0A69906
:1006200019C084B3829581708F2580FDA49A80FFC4
:10063000A498A79A0FC087B1843B60F4A6990AC01A
:1006400084B383FB882780F98F2580FDA39A80FFE0
:10065000A398A69A2E9A9E9906C0B09B04C0B19901
:1006600002C09F9A06C09F9904C0B09902C0B19978
:100670009E9A9A9906C0B29B04C0CF9902C09B9AD9
:1006800006C09B9904C0B29902C0CF999A9A9E99CC
:1006900002C09F9B04C0B09B02C0B1999D9A9A99D9
:1006A00002C09B9B04C0B29B02C0CF99999A9D9BAC
:1006B0001DC09F9B04C0B19B02C0B09B06C09E9B07
:1006C00015C0B19913C0B09B11C09F9B06C0C1302B
:1006D00084E0D80740F4A09606C09E9B04C0C032B8
:1006E000D10508F0A0979F989E989D98999B47C028
:1006F0009B9B04C0CF9B02C0B29B06C09A9B3FC08D
:10070000CF993DC0B29B3BC0A39B28C09A9B11C010
:10071000809103018E3F28F4809103018E5F8093C6
:100720000301809102018E3F30F5809102018E5FBE
:1007300012C09B9B20C080910301833028F08091E0
:10074000030182508093030180910201833098F06D
:10075000809102018250809302010DC09B9B04C0D6
:1007600080910401885F05C09A9B05C080910401B7
:1007700088508093040167DD9B989A989998B09966
:1007800005C0B19903C09F989E989D98B29905C0E5
:10079000CF9903C09B989A9899980C171D0718F445
:1007A0000F5F1F4F0FC0A49B0AC0809105018F5F90
:1007B00080930501809104018F5F8093040143DDE4
:1007C00000E010E0A798A6981DCF5058BB27AA2795
:1007D0000ED008C1F9D030F0FED020F031F49F3FA8
:1007E00011F41EF4EEC00EF4E095E7FBE4C0E92F2F
:1007F0000AD180F3BA17620773078407950718F0C8
:1008000071F49EF522C10EF4E0950B2EBA2FA02DA7
:100810000B01B90190010C01CA01A0011124FF27AD
:10082000591B99F0593F50F4503E68F11A16F040A8
:10083000A22F232F342F4427585FF3CF46953795A7
:100840002795A795F0405395C9F77EF41F16BA0B6C
:10085000620B730B840BBAF09150A1F0FF0FBB1F1A
:10086000661F771F881FC2F70EC0BA0F621F731F63
:10087000841F48F4879577956795B795F7959E3FC0
:1008800008F0B3CF9395880F08F09927EE0F97954E
:10089000879508956CD008F481E00895BCD088F065
:1008A0009F5790F0B92F9927B751A0F0D1F0660F5C
:1008B000771F881F991F1AF0BA95C9F712C0B13077
:1008C00081F0C3D0B1E00895C0C0672F782F88278A
:1008D000B85F39F0B93FCCF3869577956795B395B6
:1008E000D9F73EF490958095709561957F4F8F4F25
:1008F0009F4F0895E89409C097FB3EF4909580952A
:10090000709561957F4F8F4F9F4F9923A9F0F92FD5
:1009100096E9BB279395F695879577956795B79553
:10092000F111F8CFFAF4BB0F11F460FF1BC06F5F39
:100930007F4F8F4F9F4F16C0882311F096E911C04B
:10094000772321F09EE8872F762F05C0662371F06C
:1009500096E8862F70E060E02AF09A95660F771F80
:10096000881FDAF7880F9695879597F90895990F5C
:100970000008550FAA0BE0E8FEEF16161706E80769
:10098000F907C0F012161306E407F50798F0621B8A
:10099000730B840B950B39F40A2661F0232B242B5F
:1009A000252B21F408950A2609F4A140A6958FEF7E
:1009B000811D811D089597F99F6780E870E060E0D0
:1009C00008959FEF80EC089500240A9416161706E8
:1009D00018060906089500240A9412161306140630
:1009E00005060895092E0394000C11F4882352F093
:1009F000BB0F40F4BF2B11F460FF04C06F5F7F4F4B
:100A00008F4F9F4F089557FD9058440F551F59F031
:100A10005F3F71F04795880F97FB991F61F09F3FEB
:100A200079F087950895121613061406551FF2CF14
:100A30004695F1DF08C0161617061806991FF1CF64
:100A400086957105610508940895E894BB2766278B
:100A50007727CB0197F908958ADF08F48FEF08957F
:100A60000AD0C0CFB1DF28F0B6DF18F0952309F027
:100A7000A2CFA7CFEBCFC7DFA8F39923D9F3552394
:100A8000C9F3950F50E0551FAA27EE27FF27BB2774
:100A900000240894679520F4E20FF31FB41F0A1E88
:100AA000220F331F441FAA1F6695A9F7779530F4CC
:100AB000F30FB41F0A1E121E08F46395330F441F70
:100AC000AA1F221F769599F7879520F4B40F0A1E66
:100AD000121E631F440FAA1F221F331F8695A9F7FA
:100AE000862F712D602D11249F5750408AF0E1F020
:100AF00088234AF0EE0FFF1FBB1F661F771F881F5A
:100B000091505040A9F79E3F510570F054CF9ECFB1
:100B10005F3FECF3983EDCF3869577956795B79544
:100B2000F795E7959F5FC1F7FE2B880F911D96956E
:100B3000879597F9089511F40EF443CF3EC06BDF0B
:100B4000D0F39923D9F3CEF39F57550B87FF43D0AA
:100B50000024A0E640EA900180585695979528F425
:100B6000805C660F771F881F20F02617370748071D
:100B700030F4621B730B840B202931294A2BA69574
:100B800017940794202531254A2758F7660F771FB9
:100B9000881F20F026173707480730F4620B730BC5
:100BA000840B200D311D411DA09581F7B901842FC3
:100BB0009158880F9695879508959F3F31F09150F1
:100BC00020F4879577956795B795880F911D969531
:100BD000879597F9089591505040660F771F881FA9
:080BE000D2F70895F894FFCF4D
:060BE800F0F08282B4145B
:00000001FF
