:100000001DC037C036C035C034C033C032C031C067
:1000100030C02FC02EC02DC02CC02BC02AC029C07C
:1000200028C027C026C025C024C023C038C021C096
:1000300020C01FC01EC01DC01CC01BC011241FBE7D
:10004000CFEFD1E0DEBFCDBF11E0A0E0B1E0E2E450
:10005000F1E002C005900D92A630B107D9F721E07A
:10006000A6E0B1E001C01D92A831B207E1F742D08D
:1000700066C0C6CF9091860095FFFCCF809380002C
:100080000895CF93DF93EC018991882311F0F2DF7B
:10009000FBCFDF91CF91089580E091E0F2CF1F92E6
:1000A0000F920FB60F9211248F93EF93FF93E0916D
:1000B0000601F0E080918000E15FFE4F8083E091D7
:1000C0000601F0E0E15FFE4F80818A3031F481E08B
:1000D000809317011092060105C0809106018F5F81
:1000E00080930601FF91EF918F910F900FBE0F90BB
:1000F0001F90189581E08ABB89BB9091850098611B
:1001000090938500909184009E609093840010925B
:1001100082008093810080918500806880938500B3
:100120007894809117018130E1F789BB8FE39CE9D6
:100130000197F1F700C0000010921701F2CFF89478
:02014000FFCFEF
:060142004F4B0D0A000006
:00000001FF
