:2000000023C43DC43CC43BC43AC439C438C437C436C435C434C433C432C431C430C42FC453
:200020002EC42DC42CC400FF80CAFAFFD2BE52200C0400010308163A4553789BB5D2E7F52F
:20004000FAFFF1DDC8B79B8A2B1A86DB27E49B52FA0C6B3A37562027B656DC691F465821E9
:2000600032387041F2C7116F75B5F7FB6EC60D7ED0A90ACD9CA693D2AC49B0B86A408ADFEA
:2000800067CA986055E51FF2FD0301E90D37D9D67C2C6ECE862EADC2E8595F3646D39A6718
:2000A000C300868BE58BDFB38E8F765D36DE84574ABDE02ACCE1E3BED29159C6D36810D28D
:2000C000B22E0C3A266164F430B1AA59EF6E5A1A090F1013708C423EDBB1BF84E26C1C2D49
:2000E00085DCBE13E56115ED3622C8012C8F111BAF31C9EB24A460C281FC8507437CFE1822
:20010000537481F84B6AC8D0FDC1FE784E91CC37E4BCF13BBDDDA1EBF291240B801E2709CA
:20012000BCF5D9C5BBF19F2CBAB72053942D1447AD93C5EF82FAD105DDDC59F63881593861
:200140001FD374CEA0F3004598CEF7D01C26234A4174A80F3FB921B85620EE213515D9379B
:20016000D603281B182FCBB24FABBD148CF84FE6057C96A2C1D0FE882CDFAD2E943EC3666A
:2001800026391D155D73F178CD5EFE9221AF31B315B110E53ED44A314AF1F8F054DD9E35B7
:2001A0008A8574E3857BA81A24B5295877A2C6B764E6922661DBE743E36120D088F464F4B7
:2001C00054E5DC04EF62E0830945F8FEAA6CCA90543988FE4373BCBDA7F9CC94B00E600C32
:2001E00060E86AB6C0BFD7F6E10D60C51459E698ABC0F979CAF99BCEBD32E969495A74B834
:2002000048A189C672A37BDF2F1A425A194578F312A2BBAA839D5901BF8B20A791B5F92482
:20022000696FB1049EF8A5EC4F093C1B304232BC5B2B89412FF52DDAC27E91054A116A6A7B
:20024000473681AFE8DD772AD757BE42BCAE9E27132673F410A6D1FB815EBB87C791D0EAD9
:2002600008A1EB010923BF0B32F0224202AF2178273F37D09BE3F61FE1193E6BFA92BCFB3D
:20028000E2962571FD816042F9BC261F032716826B4C11AEAF342FABA5FE566FEF099356F8
:2002A000860642E4680415FEFB5A8DB7952A3517D90446C7543C6A63C5C33E268B1C6568C2
:2002C000153A303C7A25BA7E234198876C4C97D713C68FFDD9B6A182D1AA2A1D2F1437C8C8
:2002E000256F37F36AEE56AC6B8073F020A438E8785CF01CC301F23E9565B01C350627E4D4
:20030000F0FB365B4F74A074AD22F949BB4CCFABCE5C55EEC689CDB12B914A7977461A1652
:2003200091BF35C45B2FF3784BED7AB3B09549D95515A412473291741FE58BC273C344BB8F
:20034000E2B9C6B63E4CEAF413E0AA897F387F772D07CC93584B39AABDB855713612097E28
:200360000E2EEBB1A998221965986A7BA46A2B6F144E20E71D4361DE86A12C3EC5141835E0
:200380006A74C94632910A556EFE1AEC207B1DAA30179DEB95C68A220BADB8F0E2A1D8BD2C
:2003A00047C4DAFE93BB783AE4224C2A60F1D91B8E7E1AC87245ACA26828ADB5658F2C454F
:2003C0006E0C922F192098CFAA853B6B123834D644252352B552168566D53918B61A3D0DF3
:2003E000206B95AF8811EEE6ABD59544887493D7A8953FBECFAF595E573FBEB13A7731B0FC
:200400008114014494F3FF3EA03A391290F4C0F02BE6E7E3426FA7BA31CAA2A16B5956CBD5
:200420000BA87D939008B81592EE72268D631D0FA29AFB043F2119E4719AA2BBFB1902BD8D
:200440000D5936CDE6F7F018808081828383848586878788898A8A8B8C8D8E8E8F90919182
:20046000929394959596979898999A9B9B9C9D9E9E9FA0A1A2A2A3A4A5A5A6A7A7A8A9AABA
:20048000AAABACADADAEAFB0B0B1B2B2B3B4B5B5B6B7B7B8B9BABABBBCBCBDBEBEBFC0C0AA
:2004A000C1C2C2C3C4C4C5C6C6C7C8C8C9CACACBCBCCCDCDCECFCFD0D0D1D2D2D3D3D4D5DB
:2004C000D5D6D6D7D7D8D9D9DADADBDBDCDCDDDDDEDEDFE0E0E1E1E2E2E3E3E4E4E4E5E56A
:2004E000E6E6E7E7E8E8E9E9EAEAEAEBEBECECECEDEDEEEEEEEFEFF0F0F0F1F1F1F2F2F26D
:20050000F3F3F3F4F4F4F5F5F5F6F6F6F6F7F7F7F8F8F8F8F9F9F9F9FAFAFAFAFAFBFBFBF3
:20052000FBFBFCFCFCFCFCFCFDFDFDFDFDFDFDFEFEFEFEFEFEFEFEFEFEFEFFFFFFFFFFFF0E
:20054000FFFFFFFFFFFFFFFFFFFFFFFFFFFFFFFFFFFFFFFFFFFFFFFEFEFEFEFEFEFEFEFEC4
:20056000FEFEFDFDFDFDFDFDFDFCFCFCFCFCFCFBFBFBFBFBFAFAFAFAFAF9F9F9F9F8F8F817
:20058000F8F7F7F7F6F6F6F6F5F5F5F4F4F4F3F3F3F2F2F2F1F1F1F0F0F0EFEFEEEEEEED04
:2005A000EDECECECEBEBEAEAEAE9E9E8E8E7E7E6E6E5E5E4E4E4E3E3E2E2E1E1E0E0DFDE7B
:2005C000DEDDDDDCDCDBDBDADAD9D9D8D7D7D6D6D5D5D4D3D3D2D2D1D0D0CFCFCECDCDCC72
:2005E000CBCBCACAC9C8C8C7C6C6C5C4C4C3C2C2C1C0C0BFBEBEBDBCBCBBBABAB9B8B7B7D2
:20060000B6B5B5B4B3B2B2B1B0B0AFAEADADACABAAAAA9A8A7A7A6A5A5A4A3A2A2A1A09F82
:200620009E9E9D9C9B9B9A999898979695959493929191908F8E8E8D8C8B8A8A8988878768
:200640008685848383828180807F7E7D7C7C7B7A797878777675757473727171706F6E6E65
:200660006D6C6B6A6A696867676665646463626161605F5E5D5D5C5B5A5A5958585756555C
:20068000555453525251504F4F4E4D4D4C4B4A4A49484847464545444343424141403F3F2C
:2006A0003E3D3D3C3B3B3A393938373736353534343332323130302F2F2E2D2D2C2C2B2ABB
:2006C0002A2929282827262625252424232322222121201F1F1E1E1D1D1C1C1B1B1B1A1AEC
:2006E00019191818171716161515151414131313121211111110100F0F0F0E0E0E0D0D0DA9
:200700000C0C0C0B0B0B0A0A0A0909090908080807070707060606060505050505040404E1
:20072000040403030303030302020202020202010101010101010101010100000000000086
:20074000000000000000000000000000000000000000000000000001010101010101010190
:200760000101020202020202020303030303030404040404050505050506060606070707FD
:2007800007080808090909090A0A0A0B0B0B0C0C0C0D0D0D0E0E0E0F0F0F101011111112D0
:2007A00012131313141415151516161717181819191A1A1B1B1B1C1C1D1D1E1E1F1F202119
:2007C000212222232324242525262627282829292A2A2B2C2C2D2D2E2F2F303031323233E2
:2007E000343435353637373839393A3B3B3C3D3D3E3F3F4041414243434445454647484842
:20080000494A4A4B4C4D4D4E4F4F505152525354555556575858595A5A5B5C5D5D5E5F6050
:200820006161626364646566676768696A6A6B6C6D6E6E6F7071717273747575767778782A
:20084000797A7B7C7C7D7E7F11241FBECFE5D4E0DEBFCDBF11E0A0E6B0E0E6E9F0E102C0AC
:2008600005900D92A036B107D9F721E0A0E6B1E001C01D92A136B207E1F77FD00AC4C0CB4E
:200880008CEF81BB8FE087BB14BA0895089585E886B9089580FF02C0929A01C0929881FFC7
:2008A00002C0939A01C0939882FF02C0949A01C0949883FF02C0959A01C0959884FF02C059
:2008C000969A01C0969885FF02C0979A01C0979886FF02C0C09A01C0C09887FF02C0C19A35
:2008E00001C0C19890FF02C0C29A01C0C29891FF02C0C39A0895C3980895E0916001F0E030
:20090000E85BFF4F249126952695620F711D6038710534F4FC01E40FF11DE85BFB4F2BC070
:200920006F3F710509F074F4840F911D97FF02C081509E4FFC01EF2FFF0FFF0BE595EA5DE7
:20094000FF4F19C0611522E072076CF4840F911D97FD4F96FC0185E0F595E7958A95E1F706
:20096000E85DFF4F08C0611573402CF4FC01E40FF11DE85BFF4F84910895CF93DF93CDB73A
:20098000DEB764970FB6F894DEBF0FBECDBF78DF85E886B985E087B9C12CD12C7601260150
:2009A0003701CB82DC82ED82FE8219861886212C312C1E861D861C861B8601E010E01F8282
:2009C0001A861A8219821C8A1B8A369930C087B1823009F150F4882329F1813039F5A4B115
:2009E000B5B1BC87AB8717B821C0843051F070F08530E1F424B135B13E872D8734E037B955
:200A000015C004B115B143E047B910C024B035B052E057B90BC084B195B19987888791E0B2
:200A200097B904C084B195B1B5E0B7B9369AE981FA813196FA83E98388859985880F991F43
:200A4000E817F907B0F08F818F5F2F81E22FF0E0E85BFF4F34913A878F83C12CD12C7601DE
:200A6000CB82DC82ED82FE8242E350E05A8349836FC0B801882777FD8095982FF3D14B01E7
:200A80005C015A85652F70E080E090E0EBD16F87788B898B9A8BAD85BE85BD01882777FD22
:200AA0008095982FDFD120E030E040E85AE38ED29B01AC016F85788989899A8987D220E009
:200AC00030E040E85FE3CAD09B01AC01C501B401C6D095D18B0120E030E040E85FE36B8150
:200AE0007C818D819E81BBD06B837C838D839E8320E030E040E251E416D187FF08C02DEC6E
:200B00003CEC4CEC5DE3C701B601A9D01FC020E030E0A901C701B60155D21816CCF4E885A3
:200B2000F985BF01882777FD8095982F9BD120E030E040E85AE34AD22BE734E14EE25EE3E3
:200B400045D29B01AC01C701B60188D06B017C018B899C89800F911F8115944098F08B89F7
:200B60009C898F5F9340980117FF02C02D5F3F4FA9015595479555954795480F591F5C8B18
:200B80004B8B11C08B899C890196980117FF02C02D5F3F4FD901B595A795B595A795A80FB6
:200BA000B91FBC8BAB8BB59909C020E030E0A901C301B20107D21816E4F406C0412C512C09
:200BC00020E8622E2FE3722EEB85FC85BF01882777FD8095982F46D120E030E048E458E48C
:200BE000A6D09B01AC01C301B20138D02B013C0103C0412C512C320140E0B1018B899C8963
:200C00007CDE982E41E0B1018B899C8976DEA82EB12CA90CB11C45E0B1018B899C896DDEC4
:200C2000A80EB11C49E0B1018B899C8966DEB501680F711D882777FD8095982F13D1A30197
:200C40009201C4D1A7019601C1D1D9D0CB0122DE809160018F5F80936001B7CE5058BB2743
:200C6000AA270ED075C166D130F06BD120F031F49F3F11F41EF45BC10EF4E095E7FB51C14B
:200C8000E92F77D180F3BA17620773078407950718F071F49EF58FC10EF4E0950B2EBA2FBD
:200CA000A02D0B01B90190010C01CA01A0011124FF27591B99F0593F50F4503E68F11A164C
:200CC000F040A22F232F342F4427585FF3CF469537952795A795F0405395C9F77EF41F165C
:200CE000BA0B620B730B840BBAF09150A1F0FF0FBB1F661F771F881FC2F70EC0BA0F621F1E
:200D0000731F841F48F4879577956795B795F7959E3F08F0B3CF9395880F08F09927EE0F9B
:200D2000979587950895D9D008F481E008950CD00FC107D140F0FED030F021F45F3F19F0CD
:200D4000F0C0511139C1F3C014D198F39923C9F35523B1F3951B550BBB27AA27621773071A
:200D6000840738F09F5F5F4F220F331F441FAA1FA9F333D00E2E3AF0E0E830D09150504027
:200D8000E695001CCAF729D0FE2F27D0660F771F881FBB1F261737074807AB07B0E809F045
:200DA000BB0B802DBF01FF2793585F4F2AF09E3F510568F0B6C000C15F3FECF3983EDCF343
:200DC000869577956795B795F7959F5FC9F7880F911D9695879597F90895E1E0660F771FD5
:200DE000881FBB1F621773078407BA0720F0621B730B840BBA0BEE1F88F7E095089504D062
:200E00006894B111D9C00895BCD088F09F5790F0B92F9927B751A0F0D1F0660F771F881FB1
:200E2000991F1AF0BA95C9F712C0B13081F0C3D0B1E00895C0C0672F782F8827B85F39F050
:200E4000B93FCCF3869577956795B395D9F73EF490958095709561957F4F8F4F9F4F089502
:200E6000E89409C097FB3EF490958095709561957F4F8F4F9F4F9923A9F0F92F96E9BB27BC
:200E80009395F695879577956795B795F111F8CFFAF4BB0F11F460FF1BC06F5F7F4F8F4FF5
:200EA0009F4F16C0882311F096E911C0772321F09EE8872F762F05C0662371F096E8862F04
:200EC00070E060E02AF09A95660F771F881FDAF7880F9695879597F90895990F0008550F97
:200EE000AA0BE0E8FEEF16161706E807F907C0F012161306E407F50798F0621B730B840B66
:200F0000950B39F40A2661F0232B242B252B21F408950A2609F4A140A6958FEF811D811DE1
:200F2000089597F99F6780E870E060E008959FEF80EC089500240A9416161706180609061A
:200F4000089500240A9412161306140605060895092E0394000C11F4882352F0BB0F40F465
:200F6000BF2B11F460FF04C06F5F7F4F8F4F9F4F089557FD9058440F551F59F05F3F71F00F
:200F80004795880F97FB991F61F09F3F79F087950895121613061406551FF2CF4695F1DF08
:200FA00008C0161617061806991FF1CF86957105610508940895E894BB2766277727CB0105
:200FC00097F908958ADF08F48FEF08950BD0C0CFB1DF28F0B6DF18F0952309F0A2CFA7CF1D
:200FE0001124EACFC6DFA0F3959FD1F3950F50E0551F629FF001729FBB27F00DB11D639FD9
:20100000AA27F00DB11DAA1F649F6627B00DA11D661F829F2227B00DA11D621F739FB00DA6
:20102000A11D621F839FA00D611D221F749F3327A00D611D231F849F600D211D822F762FE5
:201040006A2F11249F5750408AF0E1F088234AF0EE0FFF1FBB1F661F771F881F91505040E4
:20106000A9F79E3F510570F05CCFA6CF5F3FECF3983EDCF3869577956795B795F795E79504
:201080009F5FC1F7FE2B880F911D9695879597F90895F894FFCF0001020304050607080931
:2010A0000A0B0C0D0E0F101112131415161718191A1B1C1D1E1F2021222324252627282900
:2010C0002A2B2C2D2E2F303132333435363738393A3B3C3D3E3F40414243444546474849E0
:2010E0004A4B4C4D4E4F505152535455565758595A5B5C5D5E5F60616263646566676869C0
:201100006A6B6C6D6E6F707172737475767778797A7B7C7D7E7F808182838485868788899F
:201120008A8B8C8D8E8F909192939495969798999A9B9C9D9E9FA0A1A2A3A4A5A6A7A8A97F
:20114000AAABACADAEAFB0B1B2B3B4B5B6B7B8B9BABBBCBDBEBFC0C1C2C3C4C5C6C7C8C95F
:20116000CACBCCCDCECFD0D1D2D3D4D5D6D7D8D9DADBDCDDDEDFE0E1E2E3E4E5E6E7E8E93F
:16118000EAEBECEDEEEFF0F1F2F3F4F5F6F7F8F9FAFBFCFDFEFF56
:00000001FF
