:100000001DC02FC03EC02DC02CC02BC02AC029C08F
:1000100028C027C026C025C024C023C022C021C0BC
:1000200020C01FC01EC01DC01CC01BC01AC019C0EC
:1000300018C017C016C015C014C013C011241FBEAD
:10004000CFEFD1E0DEBFCDBF11E0A0E0B1E0E0EA4C
:10005000FBE002C005900D92A630B107D9F749D256
:100060009DC5CECF17BA8FE088BB8EE78ABB81E8EB
:100070008BBB089581E082BB8BB780618BBF789486
:1000800008951F920F920FB60F9211248F939F9392
:10009000F8948FE99FE00197F1F700C00000C89B3A
:1000A00012C0B09B09C083B38295817091E089270B
:1000B00080FD9C9A80FF9C98B19B05C083B380FF14
:1000C000989A80FD989878949F918F910F900FBE89
:1000D0000F901F90189583E08093680085EC8093C3
:1000E00067008FE38093660083EF80BF81E083BF6A
:1000F0008FB5836F8FBD8EB589608EBDEAECF0E061
:100100008081836F8083E9ECF0E080818960808367
:100110008FEF9FEF95BD84BD9093C1008093C00089
:100120001BBC1ABC19BC18BC1CBE1092C300109298
:10013000C2001092C5001092C40016BE08954F92DE
:100140005F926F927F928F929F92AF92BF92CF9267
:10015000DF92EF92FF920F931F93CF93DF934B01A8
:100160005C013901D42FC52F6701780120E030E010
:10017000A901C701B6016AD387FF09C020E030E0BA
:1001800040E85FE3C701B601FDD26B017C0120E0CE
:1001900030E040E85FE3C701B6013AD418164CF4EA
:1001A00020E030E040E85FE3C701B601EAD26B012E
:1001B0007C012BEA3AEA4AE25EE3C701B60146D384
:1001C00087FF0EC09401A501B3018D2F9C2FD9D2BA
:1001D00020E030E040EC50E41FD4A70196012AC093
:1001E00020E030E040E05FE3C701B6012FD387FD98
:1001F0002EC02BEA3AEA4AE25FE3C701B60126D3F2
:1002000087FF22C09401A501B3018D2F9C2FB9D285
:100210002B013C01A70196016BEA7AEA8AE29FE38F
:10022000B0D29B01AC01C301B201F6D320E030E0B3
:1002300040EC50E4F1D39B01AC01B401C501A2D262
:100240003B01D82FC92F03C03401DA2DCB2DB301C8
:100250008D2F9C2FDF91CF911F910F91FF90EF90E9
:10026000DF90CF90BF90AF909F908F907F906F90D6
:100270005F904F9008954F925F926F927F928F920E
:100280009F92AF92BF92CF92DF92EF92FF920F9325
:100290001F93CF93DF93CDB7DEB72C970FB6F894AB
:1002A000DEBF0FBECDBF9C9B1DC06091040170E0FE
:1002B00080E090E0FDD220E030E040E85BE3ACD3AA
:1002C0004B015C016091020170E080E090E0F0D2AF
:1002D00020E030E040E85BE39FD36B017C0160915C
:1002E00000011CC06091050170E080E090E0E0D268
:1002F00020E030E040E85BE38FD34B015C0160918C
:10030000030170E080E090E0D3D220E030E040E8EC
:100310005BE382D36B017C016091010170E080E0BE
:1003200090E0C6D220E030E040E85BE375D32B01DB
:100330003C0120E030E040E05FE3C701B60186D237
:1003400087FF0DC020E030E040E85FE3C301B20169
:1003500019D29B01AC01C701B6015ED315C0A30140
:100360009201C701B6010ED269837A838B839C8385
:10037000A3019201C701B6014FD39B01AC01698172
:100380007A818B819C81FDD12B013C01A7019601D3
:10039000C701B601F7D1A3019201F3D169837A8332
:1003A0008B839C832BEA3AEA4AEA5EE3C501B401F7
:1003B000E9D17B018C01A301920169817A818B8152
:1003C0009C81BDDE9B01AC0160E070E080E89FE3B2
:1003D000D8D191D320E030E040E854E41DD320E0B0
:1003E00030E040E85FE3CDD135D26D837E838F83EB
:1003F000988785017401A301920169817A818B81BB
:100400009C819DDE9B01AC0160E070E080E89FE391
:10041000B8D171D320E030E040E854E4FDD220E0D0
:1004200030E040E85FE3ADD115D269877A878B87EA
:100430009C872BEA3AEA4AEA5EE3C501B401A1D1FE
:100440007B018C01A301920169817A818B819C815E
:1004500076DE9B01AC0160E070E080E89FE391D123
:100460004AD320E030E040E853E4D6D220E030E048
:1004700040E85FE386D1EED19C9B0EC08D819E81CA
:100480009093C3008093C200E985FA85F093C5007C
:10049000E093C40066BF09C08D819E819BBD8ABD6B
:1004A000E985FA85F9BDE8BD6CBF2C960FB6F894C6
:1004B000DEBF0FBECDBFDF91CF911F910F91FF9097
:1004C000EF90DF90CF90BF90AF909F908F907F90F4
:1004D0006F905F904F900895E0E7F0E080818E7F0D
:1004E000808380832F9A89B189B9239A85B185B990
:1004F0000895B8DDF0DDF0DF9F989E989D989B9859
:100500009A9899989C9AB7DE9C98B5DE98982E9AFE
:10051000C1E0DFEF2E992CC087B1843618F4A6987D
:10052000A79825C087B1883870F4A69920C0A799EC
:100530001EC0989883B3829581708C2780FD9C9A09
:1005400080FF9C9813C087B18A3A58F4A7990FC0CE
:1005500083B381708C2780FD989A80FF9898A79A22
:1005600006C0A79904C0A69902C0A79AA69A2E9A77
:100570009E9906C0B09B04C0B19902C09F9A06C064
:100580009F9904C0B09902C0B1999E9A9A9906C0E9
:10059000B29B04C0CF9902C09B9A06C09B9904C02D
:1005A000B29902C0CF999A9A9E9902C09F9B04C0AB
:1005B000B09B02C0B1999D9A9A9902C09B9B04C0BE
:1005C000B29B02C0CF99999A9D9B3BC09F9B04C050
:1005D000B19B02C0B09B06C09E9B33C0B19931C095
:1005E000B09B2FC08AE68A95F1F700C09F9B04C09C
:1005F000B19B02C0B09B06C09E9B23C0B19921C095
:10060000B09B1FC09F9B0AC09C9B04C080910401AB
:100610008E5F0BC0809105018E5F0DC09E9B0DC04B
:100620009C9B06C08091040182508093040105C008
:10063000809105018250809305011DDE9F989E9850
:100640009D98999B8FC09B9B04C0CF9B02C0B29B7F
:1006500006C09A9B87C0CF9985C0B29B83C08AE6AB
:100660008A95F1F700C09B9B04C0CF9B02C0B29B50
:1006700006C09A9B77C0CF9975C0B29B73C09A9BF6
:1006800032C09C9B18C098990BC080910201873F93
:1006900018F0D093020162C0809102018C5F33C0D8
:1006A00080910001873F18F0D093000157C08091DE
:1006B00000018C5F35C098990BC080910301873F82
:1006C00018F0D09303014AC0809103018C5F37C0BA
:1006D00080910101873F18F0D09301013FC08091C4
:1006E00001018C5F39C09B9B39C09C9B1CC09899B1
:1006F0000DC080910201853018F4C09302012EC014
:100700008091020184508093020128C080910001F1
:10071000853018F4C093000121C0809100018450FD
:10072000809300011BC098990DC080910301853012
:1007300018F4C093030112C0809103018450809388
:1007400003010CC080910101853018F4C0930101B0
:1007500005C0809101018450809301018CDD9B983C
:100760009A989998B09905C0B19903C09F989E989E
:100770009D98B299CFCECF99CDCE9B989A989998C3
:10078000C9CE5058BB27AA270ED008C1F9D030F0E7
:10079000FED020F031F49F3F11F41EF4EEC00EF4B1
:1007A000E095E7FBE4C0E92F0AD180F3BA176207AE
:1007B00073078407950718F071F49EF522C10EF4B3
:1007C000E0950B2EBA2FA02D0B01B90190010C0161
:1007D000CA01A0011124FF27591B99F0593F50F479
:1007E000503E68F11A16F040A22F232F342F4427D1
:1007F000585FF3CF469537952795A795F0405395C9
:10080000C9F77EF41F16BA0B620B730B840BBAF098
:100810009150A1F0FF0FBB1F661F771F881FC2F703
:100820000EC0BA0F621F731F841F48F48795779517
:100830006795B795F7959E3F08F0B3CF9395880FCE
:1008400008F09927EE0F9795879508956CD008F4D6
:1008500081E00895BCD088F09F5790F0B92F992778
:10086000B751A0F0D1F0660F771F881F991F1AF0BB
:10087000BA95C9F712C0B13081F0C3D0B1E0089584
:10088000C0C0672F782F8827B85F39F0B93FCCF305
:10089000869577956795B395D9F73EF490958095B1
:1008A000709561957F4F8F4F9F4F0895E89409C0D1
:1008B00097FB3EF490958095709561957F4F8F4F93
:1008C0009F4F9923A9F0F92F96E9BB279395F695A9
:1008D000879577956795B795F111F8CFFAF4BB0F27
:1008E00011F460FF1BC06F5F7F4F8F4F9F4F16C08B
:1008F000882311F096E911C0772321F09EE8872F15
:10090000762F05C0662371F096E8862F70E060E0D0
:100910002AF09A95660F771F881FDAF7880F969549
:10092000879597F90895990F0008550FAA0BE0E8ED
:10093000FEEF16161706E807F907C0F012161306A1
:10094000E407F50798F0621B730B840B950B39F4E1
:100950000A2661F0232B242B252B21F408950A2647
:1009600009F4A140A6958FEF811D811D089597F987
:100970009F6780E870E060E008959FEF80EC089545
:1009800000240A941616170618060906089500246E
:100990000A9412161306140605060895092E0394E8
:1009A000000C11F4882352F0BB0F40F4BF2B11F45C
:1009B00060FF04C06F5F7F4F8F4F9F4F089557FDBB
:1009C0009058440F551F59F05F3F71F04795880FBD
:1009D00097FB991F61F09F3F79F087950895121654
:1009E00013061406551FF2CF4695F1DF08C0161600
:1009F00017061806991FF1CF8695710561050894B1
:100A00000895E894BB2766277727CB0197F90895C7
:100A10008ADF08F48FEF08950AD0C0CFB1DF28F045
:100A2000B6DF18F0952309F0A2CFA7CFEBCFC7DF31
:100A3000A8F39923D9F35523C9F3950F50E0551F17
:100A4000AA27EE27FF27BB2700240894679520F4E8
:100A5000E20FF31FB41F0A1E220F331F441FAA1FE9
:100A60006695A9F7779530F4F30FB41F0A1E121E8E
:100A700008F46395330F441FAA1F221F769599F738
:100A8000879520F4B40F0A1E121E631F440FAA1F7D
:100A9000221F331F8695A9F7862F712D602D1124F3
:100AA0009F5750408AF0E1F088234AF0EE0FFF1F75
:100AB000BB1F661F771F881F91505040A9F79E3FAC
:100AC000510570F054CF9ECF5F3FECF3983EDCF3BE
:100AD000869577956795B795F795E7959F5FC1F7E9
:100AE000FE2B880F911D9695879597F9089511F41F
:100AF0000EF443CF3EC06BDFD0F39923D9F3CEF38E
:100B00009F57550B87FF43D00024A0E640EA900191
:100B100080585695979528F4805C660F771F881F3C
:100B200020F026173707480730F4621B730B840B3D
:100B3000202931294A2BA695179407942025312581
:100B40004A2758F7660F771F881F20F026173707A8
:100B5000480730F4620B730B840B200D311D411DCF
:100B6000A09581F7B901842F9158880F96958795A4
:100B700008959F3F31F0915020F4879577956795C0
:100B8000B795880F911D9695879597F9089591507F
:100B90005040660F771F881FD2F70895F894FFCF53
:060BA000F0F0828214B4A3
:00000001FF
