:100000001DC024C023C022C021C020C01FC01EC0EC
:100010001DC01CC01BC01AC019C018C017C016C014
:1000200015C014C013C012C011C010C00FC00EC044
:100030000DC00CC00BC00AC009C008C011241FBEEF
:10004000CFEFD1E0DEBFCDBF02D024C0D9CF8EE745
:100050008ABB81E88BBB2FEF80E792E02150804084
:100060009040E1F700C00000D99ADC9ADA9ADD9A54
:10007000DB9ADE9A2FEF83EC99E02150804090408C
:10008000E1F700C00000D998DC98DA98DD98DB9899
:08009000DE98E1CFF894FFCFE8
:00000001FF
