:020000020000FC
:0200000003C03B
:1000060041C002E00EBF0FE50DBF00E20BBF04E0EA
:1000160000BDD09AD19AD29AB89AB99AD89AD99A52
:10002600DA9AC09AC19AC29AD79A77270027C198B6
:10003600789415C0703029F0703159F0703029F479
:10004600F7CFD898D99ADA9AF3CFD89AD998DA9A74
:10005600EFCFD89AD99ADA98EBCFC19AE9CF8BE04D
:100066007095089410F4C79802C0C79A00001ED075
:100076001DD0000000000000000076958A9591F7DB
:10008600C79AD6CFC09889E0B299FECF0FD00ED0CE
:100096000DD08894B299089400000000000000007A
:1000A6008A9511F07795F3CFC09A18951091600054
:1000B6001A95F1F7000008951127B299FECFB29B69
:1000C600FECFB29B03C00000139541F0123030F012
:1000D6001250133018F013501093600008951AB39D
:1000E60010681ABBC79A17B31B7F17BB12E8109389
:0400F6006000089509
:00000001FF
