:100000002CC03BC04AC039C038C037C036C035C02C
:1000100034C033C032C031C030C02FC02EC02DC05C
:100020002CC02BC02AC029C028C027C026C025C08C
:1000300024C023C022C021C020C01FC005A84CCDB1
:10004000B2D44EB93836A9020C50B9918688083C12
:10005000A6AAAA2ABE000000803F11241FBECFEF2F
:10006000D1E0DEBFCDBF21E0A0E0B1E001C01D9234
:10007000A530B207E1F773D09FC2C2CF87E087BB3C
:1000800018BA80EC8ABB8FE38BBB089581E082BBFA
:100090008BB780618BBF789408951F920F920FB633
:1000A0000F921124F89478940F900FBE0F901F9028
:1000B0001895E0E7F0E080818E7F808380832F9A1F
:1000C00089B189B9239A85B185B90895CF92DF9214
:1000D000EF92FF92CF93C7B12AE037ED43E25CE3A2
:1000E00060910101709102018091030190910401DE
:1000F00075D16B017C016C2F70E080E090E0E2D064
:100100009B01AC01C701B60169D1D3D120E030E039
:1001100040E851E463D19F77A7D08FE0860FCF915D
:10012000FF90EF90DF90CF90089580FF02C0C09ABB
:1001300001C0C09881FF02C0C19A01C0C19882FF6E
:1001400002C0C29A01C0C29883FF02C0DF9A01C0F8
:10015000DF9884FF02C0DE9A0895DE9808958EDF4E
:10016000A8DF2E9A2DEC3CEC4CE45DE3609101019C
:1001700070910201809103019091040111D060936C
:1001800001017093020180930301909304019EDFAB
:10019000CCDFC09B02C0C098E5CFC09AE3CF5058D7
:1001A000BB27AA270ED0E0C0D1D030F0D6D020F0A7
:1001B00031F49F3F11F41EF4C6C00EF4E095E7FB46
:1001C000BCC0E92FE2D080F3BA1762077307840737
:1001D000950718F071F49EF5FAC00EF4E0950B2E19
:1001E000BA2FA02D0B01B90190010C01CA01A00189
:1001F0001124FF27591B99F0593F50F4503E68F1E4
:100200001A16F040A22F232F342F4427585FF3CF24
:10021000469537952795A795F0405395C9F77EF4F5
:100220001F16BA0B620B730B840BBAF09150A1F03E
:10023000FF0FBB1F661F771F881FC2F70EC0BA0FC4
:10024000621F731F841F48F4879577956795B7954C
:10025000F7959E3F08F0B3CF9395880F08F0992744
:10026000EE0F97958795089598D088F09F5790F056
:10027000B92F9927B751A0F0D1F0660F771F881FCB
:10028000991F1AF0BA95C9F712C0B13081F09FD00A
:10029000B1E008959CC0672F782F8827B85F39F0A8
:1002A000B93FCCF3869577956795B395D9F73EF42A
:1002B00090958095709561957F4F8F4F9F4F0895D2
:1002C000E89409C097FB3EF49095809570956195F0
:1002D0007F4F8F4F9F4F9923A9F0F92F96E9BB27A6
:1002E0009395F695879577956795B795F111F8CF22
:1002F000FAF4BB0F11F460FF1BC06F5F7F4F8F4F8D
:100300009F4F16C0882311F096E911C0772321F082
:100310009EE8872F762F05C0662371F096E8862F1A
:1003200070E060E02AF09A95660F771F881FDAF771
:10033000880F9695879597F9089597F99F6780E8B4
:1003400070E060E008959FEF80EC089500240A9427
:100350001616170618060906089500240A941216A0
:100360001306140605060895092E0394000C11F4D3
:10037000882352F0BB0F40F4BF2B11F460FF04C080
:100380006F5F7F4F8F4F9F4F089557FD9058440FD9
:10039000551F59F05F3F71F04795880F97FB991FE4
:1003A00061F09F3F79F087950895121613061406A1
:1003B000551FF2CF4695F1DF08C01616170618062E
:1003C000991FF1CF86957105610508940895E89409
:1003D000BB2766277727CB0197F908950AD0C4CFAA
:1003E000B5DF28F0BADF18F0952309F0A6CFABCF20
:1003F000EFCFCBDFA8F39923D9F35523C9F3950F9A
:1004000050E0551FAA27EE27FF27BB27002408949A
:10041000679520F4E20FF31FB41F0A1E220F331F4B
:10042000441FAA1F6695A9F7779530F4F30FB41F00
:100430000A1E121E08F46395330F441FAA1F221FC1
:10044000769599F7879520F4B40F0A1E121E631F44
:10045000440FAA1F221F331F8695A9F7862F712DDF
:10046000602D11249F5750408AF0E1F088234AF014
:10047000EE0FFF1FBB1F661F771F881F9150504054
:10048000A9F79E3F510570F058CFA2CF5F3FECF324
:10049000983EDCF3869577956795B795F795E79540
:1004A0009F5FC1F7FE2B880F911D9695879597F951
:1004B00008959F9305D00F9007FCEE5F28C043CFAF
:1004C0006CDFE8F3E894E0E0BB279F57F0F02AEDFB
:1004D0003FE049EC06C0EE0FBB0F661F771F881F79
:1004E00028F0B23A62077307840728F0B25A620B09
:1004F000730B840BE3959A9572F7803830F49A95D4
:10050000BB0F661F771F881FD2F7904813C0EF9369
:10051000E0FF06C0A2EA2AED3FE049EC5FEB51DEC6
:1005200023DF0F90039401FC9058ECE3F0E00EC041
:100530009F3F31F0915020F4879577956795B79557
:10054000880F911D9695879597F908959F938F939E
:100550007F936F93FF93EF939B01AC013FDFEF918C
:10056000FF9105D02F913F914F915F9137CFDF934E
:10057000CF931F930F93FF92EF92DF927B018C0139
:10058000689405C0DA2EEF0134DFFE01E894A591EE
:100590002591359145915591AEF3EF0112DEFE01A3
:1005A0009701A801DA9479F7DF90EF90FF900F910F
:0C05B0001F91CF91DF910895F894FFCFC8
:00000001FF
