:020000020000FC
:020000001BC023
:10000800FF000000FF000000FFFF7F5000FF7FFFA0
:10001800A07A00FFFFFFFF00800080DAA5200080A3
:1000280000FF7F507FFFD4FFC0CB40E6FAD3FF9E8E
:100038000027C49AB89AB99ABA9AC098C198C2982F
:1000480070E04427552766279927AA27BB271FEF63
:1000580051D0FF27E8E080E01EC073957F3F21F173
:10006800741741F1751741F1761741F1B49905D02C
:1000780000FFF3CFB49B0DD0F0CFCA95C03009F084
:100088000895DA95D030B49909F0FACF01E032D06A
:10009800F7CF8031F1F283959927AA27BB2795914D
:1000A800A591B59100E0D9CFC09AC19AC29A70E0E3
:1000B80007C0D6CFC098D6CFC198D6CFC298D6CFD2
:1000C800491760F0941760F05A1760F0A51760F0B0
:1000D8006B1760F0B61760F01FEFC2CF4395F4CFEF
:1000E8004A95F2CF5395F4CF5A95F2CF6395F4CF52
:0A00F8006A95F2CFCFEFDFE0089524
:00000001FF
